:020000040800F2
:10000000B00D0020A9010008B1010008B3010008EB
:10001000B5010008B7010008B901000800000000A0
:10002000000000000000000000000000BB0100080C
:10003000BD01000800000000BF010008C101000868
:10004000C3010008C3010008C3010008C301000880
:10005000C3010008C3010008C3010008C301000870
:10006000C3010008C3010008C3010008C301000860
:10007000C3010008C3010008C3010008C301000850
:10008000C3010008C3010008E9130008C301000808
:10009000C3010008C3010008C3010008C301000830
:1000A000C3010008C3010008C3010008C301000820
:1000B000C3010008C3010008C3010008C301000810
:1000C000C3010008C3010008C3010008C301000800
:1000D000C3010008C3010008C3010008C3010008F0
:1000E000C3010008C3010008C301000800F002F8C2
:1000F00000F04AF80AA090E8000C82448344AAF178
:100100000107DA4501D100F03FF8AFF2090EBAE875
:100110000F0013F0010F18BFFB1A43F0010318473B
:10012000EC7600000C770000103A24BF78C878C144
:10013000FAD8520724BF30C830C144BF04680C60ED
:10014000704700000023002400250026103A28BF35
:1001500078C1FBD8520728BF30C148BF0B60704739
:10016000662904F0CC85642900F052800020704795
:100170001FB500F0CFFB04000020002103F022FD9A
:10018000E0601FBD10B510BD00F0F0FC1146FFF798
:10019000EFFF03F03BF900F00EFD03B4FFF7F2FFB1
:1001A00003BC00F051FD00000948804709480047A2
:1001B000FEE7FEE7FEE7FEE7FEE7FEE7FEE7FEE717
:1001C000FEE7FEE704480549054A064B7047000074
:1001D00049250008ED000008B0070020B00D002000
:1001E000B0090020B00900200FB41CB5074B06AAC7
:1001F0007B4469460090059800F051FB0020694659
:1002000000F060FB1CBC5DF814FB0000D106000090
:100210002DE9F0410646002410687529314616A5DF
:1002200010D0AFF30080002802DA404213A507E0A7
:1002300031688A0701D512A502E0490704D511A546
:10024000012401E0AFF3008000210A2206F1240717
:1002500009E0B0FBF2FCB0FBF2F302FB1C00303013
:1002600078541846491C0028F3D123462A463046C4
:10027000BDE8F04100F0A5B8000000002D0000002E
:100280002B000000200000002DE9F0474FF0000A8D
:1002900089460446C0F820A02046E1688847002827
:1002A00076D0252806D0D4E901219047206A401C49
:1002B0002062F1E7E168204600258847C4F81CA0C9
:1002C00006460027C4F818A02A2E09D0304602F0AE
:1002D000EBFF38B304EB8708303EC8F8186019E02C
:1002E00059F8041B204604EB87029161E1688847B6
:1002F000012F064618D1E069002820DA25F02005F4
:100300001DE0D8F8180000EB800006EB4000303804
:10031000C8F818002046E1688847064602F0C4FF86
:100320000028EED1012F0AD02E2E08D12046E168F8
:1003300088477F1C0646022F45F02005C4DBA069D4
:10034000002803DA404245F00105A061E80701D02A
:1003500025F01005B6B1A6F14100192802D82036C3
:1003600045F400654A463146204625604D46FFF774
:10037000F7FE58B1012806D0ED1D25F0070000F169
:10038000080989E704E005F1040985E730468AE7B2
:10039000206ABDE8F08702F0FF0343EA032242EA45
:1003A000024200F096BA70477047704710B500F0EF
:1003B000B5FA006810BD10B5044600F0AFFA04604D
:1003C00010BD2DE9F0470D4699469246044600F1CE
:1003D00024080168880604D5E06921F01001216035
:1003E00000E00120A84201DD471B00E00027A169D1
:1003F0007A1902EB0900081AA0612078C00602D41D
:100400002046AFF30080002608E0D4E901211AF865
:1004100006009047206A401C761C20624E45F4DBA3
:100420002078C0060AD52046AFF3008006E0D4E964
:10043000012130209047206A401C2062381EA7F11D
:100440000107F4DC07E0D4E9012118F80500904722
:10045000206A401C2062281EA5F10105F3DC20461D
:10046000AFF300802078000602D50220BDE8F087B7
:100470000120FBE770472DE9FF4F0C461E464FF069
:10048000FF378BB0D2E90001DDF860800A908A4620
:10049000C1F30A5505B93D46002108464FF000005A
:1004A000BAF1000F00F4400005DA00EB80004FF4D1
:1004B000400101EA50004FEA9059B9F1010F00DD07
:1004C000B9460A9850EA4A000ED044F61050A5F2F8
:1004D000FF3545432F14B8F1000F1ED07542291E79
:1004E0001EDDC9F100021CE0B8F1010F4FF0000061
:1004F00001D0302103E0F24305E02154401CB0421A
:10050000FBDB30460022002121540B99C1F8088002
:10051000C1E900200FB0BDE8F08FBD1B6D1CDEE708
:100520004A4600DA694206A800F082FA06AB93E870
:10053000070003AB83E8070050460A9900F08BFBE5
:100540008DE80700A0F500501F3800900398002D9B
:100550000ADD42F21F014A460844002303A9039022
:10056000684600F0F4FD09E0A0F500504A461F3847
:10057000002303A90390684600F0FEFD8DE8070004
:100580000004000C03D04FF0FF30410800E010469B
:10059000B8F1000F03D00022009215461EE0751E30
:1005A00005D400F0BFF9303262556D1EF9D5B3465F
:1005B0000122084302D000227F1C04E0207830286A
:1005C00001D100227F1E002A099784D01DE0112D41
:1005D00007DA00F0A7F9303262556D1C50EA0102CB
:1005E000F5D1084302D00098C8B10EE00021681E82
:1005F00005E0235C625C63542254401E491C814226
:10060000F7DBAB46A81B401E0990002004F80B0046
:100610000B98099AC0F80880C0E9002B7AE71126E8
:100620004FF0000857E72DE9F04F88460446D21DE9
:1006300022F0070191B0D1E90001CDE90A0102F0F1
:10064000FFFA02460B98C00F01D02D2007E020686A
:10065000810701D52B2002E0202101EAC000032AF6
:10066000099001D0072A05DB03464146204600F0E9
:100670009FF90BE12078800601D5E06900E00620B3
:10068000B8F1650F814606D0B8F1660F18D0B8F101
:10069000670F70D131E00020B9F1110F009001DB3C
:1006A000112301E009F101030AAA01A90CA8FFF72F
:1006B000E2FEDDE90C70002609F10105834647E002
:1006C00001204B4600904FF000470AAA01A90CA850
:1006D000FFF7D1FEDDE90DB00C995D46002610B99B
:1006E00009F101000D18B9EB050003D4C0F1FF3684
:1006F00009F10105A5EB09002BE0B9F1010F01DAC1
:100700004FF001090020B9F1110F0090484601DDBA
:10071000112300E003460AAA01A90CA8FFF7ABFECB
:10072000DDE90C704D4600268346207800070AD488
:10073000AB4500DA5D4601A8012D04DD411911F831
:10074000011C302907D04F4502DA17F1040F04DAF3
:10075000012082460FE06D1EEEE7002F02DCED1B4C
:100760003E4403E0781CA84200DD7D1CB81B00F16C
:10077000010A4FF000472078000703D4AA4501DBA7
:100780004FF0FF3A0021B7F1004F0DF143088DF80B
:10079000431024D002202B23002F01DA7F422D2387
:1007A0000A21021EA0F1010000DC5FB197FBF1FC01
:1007B00097FBF1F201FB1C7C17460CF1300C08F89A
:1007C00001CDEEE7A8F1010003702188090501D5EC
:1007D000452100E06521A0F1010800F8011C0998FD
:1007E0000FA9A1EB0807FF1D00B10120411901EB82
:1007F000EA70A1693844081A401EA0612078C0063A
:1008000002D42046AFF30080099828B1D4E9012131
:100810009047206A401C20622078C00622D52046DE
:10082000AFF300801EE0002E04DBB34502DD01A81B
:10083000805D00E03020D4E901219047206A401C0F
:100840002062761CAAF101005FEA000A0AD100F0DA
:1008500061F8C0680168405CD4E901219047206AD2
:10086000401C2062281EA5F10105DCDC07E0D4E96C
:10087000012118F8010B9047206A401C2062381EA5
:10088000A7F10107F3DC2046AFF30080032011B08D
:1008900041E6000001694A1C02610878704700B512
:1008A0008FB0CDE901310021059105497944CDE9A9
:1008B000031011466846FFF7E7FC0FB000BD0000CB
:1008C000E5FFFFFF0A6802F8010B0A6070474FF06E
:1008D00000020429C0F0128010F0030C00F01C810B
:1008E000CCF1040CBCF1020F18BF00F8012BA8BF1B
:1008F00020F8022BA1EB0C0100F00EB95FEAC17CDD
:1009000024BF00F8012B00F8012B48BF00F8012B91
:10091000704700000048704770070020004870478B
:100920005007002030B5B0F10A024FEA900E71F185
:1009300000034EEA817EB0EB0E0061EB91014FEABD
:10094000101E4EEA017E10EB0E0041EB11114FEA32
:10095000102E4EEA016E10EB0E0041EB11214FEA12
:10096000104E4EEA014E10EB0E0041EB11414018C3
:1009700041F100014FEAD00040EA41704FEAD10155
:1009800010EB80054FEA810444EA907444EB0104C3
:100990006D1944EB0404521BA3414FF0000348BF00
:1009A0000A3200D530BD401C41F1000130BD0000CD
:1009B0002DE9F0411F46044603260168072A01F489
:1009C000006004DB08B116A505E016A503E008B138
:1009D00015A500E015A521F010002060A069C01E3B
:1009E000A0610FB1401EA0612046AFF300804FB15F
:1009F000D4E9012138469047206A401C2062C01C7F
:100A0000206206E0206AFAE7D4E9012115F8010B1B
:100A10009047761EF8D22046AFF30080BDE8F08103
:100A20004E414E006E616E00494E4600696E660092
:100A30002DE9F047814616468AB0354878440DC8FE
:100A40008DE80D0032487844801C03AC0DC884E862
:100A50000D0041F69B300844372190FBF1F290FBEA
:100A6000F1F5A5F1800501FB12041B3C02D564429F
:100A7000012000E00020DFF898A080460027FA441B
:100A8000AAF1BE0A0EE0E0070AD03246684607EB3C
:100A9000470101230AEB810100F06EFB8DE807009E
:100AA00064107F1C002CEED1194F7F44AE3F19E03B
:100AB000E80715D007EB04100DF1180A90E80E00B6
:100AC0008AE80E00C068F04201D1981908903246B9
:100AD000012306A903A800F04FFB03AB83E807003E
:100AE0006D10641C002DE3D14FF0010332466946BE
:100AF000B8F1000F03A802D000F029FB01E000F0DC
:100B00003BFBC9E90001C9F808200AB0BDE8F0873D
:100B1000B46D00004FF0000200B5134694469646AF
:100B2000203922BFA0E80C50A0E80C50B1F1200100
:100B3000BFF4F7AF090728BFA0E80C5048BF0CC0AE
:100B40005DF804EB890028BF40F8042B08BF70470C
:100B500048BF20F8022B11F0804F18BF00F8012B7E
:100B60007047000000487047500700207546FFF7A7
:100B7000F9FFAE4605006946534620F0070085465A
:100B800018B020B5FFF71EFBBDE820404FF000066F
:100B90004FF000074FF000084FF0000B21F0070165
:100BA000AC46ACE8C009ACE8C009ACE8C009ACE8A8
:100BB000C0098D46704710B50446AFF3008020464B
:100BC000BDE81040FFF7E9BA4FF0013C50F8042BA4
:100BD00051F8043B9A4221D1A2EB0C03934313EA50
:100BE000CC1317D150F8042B51F8043B9A4215D17D
:100BF000A2EB0C03934313EACC130BD150F8042B54
:100C000051F8043B9A4209D1A2EB0C03934313EA37
:100C1000CC13DBD04FF00000704700BFD01A01BAF0
:100C2000B1FA81F101F0180122FA01F0CB40C1F1D3
:100C30002001DBB2C0B2C01A2CFA01F3D11A9143E1
:100C400011EAC311E6D1704701491820ABBEFEE797
:100C50002600020070475FEA400C08BF91F0000FC9
:100C60004FEA8C234FEAC12243EA51514FEA1C500C
:100C700018BF00F5F0404FEA300018BF41F00041C6
:100C80005FEA6C5C00F02980BCF1FF3F08BF40F0D8
:100C900080407047130C06BF12044FF0100C4FF049
:100CA000000C130E04BF12020CF1080C130F04BF4A
:100CB00012010CF1040C930F04BF92000CF1020C12
:100CC000D30F04BF52000CF1010C11464FF000028B
:100CD000A0F11F00A0EB0C00704711F0004F08BFFF
:100CE000704731F000413FF4D5AF0B0C06BF09044B
:100CF0004FF0100C4FF0000C0B0E04BF09020CF16A
:100D0000080C0B0F04BF09010CF1040C8B0F04BF7E
:100D100089000CF1020CCB0F04BF49000CF1010C4F
:100D2000CCF12003A0EB0C0022FA03F302FA0CF240
:100D300041EA030100F10100704720F07F4C80EA96
:100D4000030023F07F47ACEB070303F57C5300F06F
:100D5000004003F1FF032DE980494FEA154B09B428
:100D60004FEA144325EA0B4E24EA03480FF2042607
:100D700006EB132749083E785FEA320203FB066759
:100D8000C7F5000707FB06F64FEA54374FEAD64689
:100D900006F1020607FB066CCCF1005C4FEA1C472B
:100DA0002CEA074C07FB06F40CFB06F504EB154692
:100DB0004FEA961634BF00204FF000404FEAD1377B
:100DC00006FB07FC4FEA1C4C0CFB0BF7D21B03FB8A
:100DD0000CF761EB07010CFB0EF7B0EB074072EB71
:100DE00017420CFB08F734BFA2EB0742B2EB0742F5
:100DF00061EB17414FEA0C444FEA910706FB07FCF1
:100E00004FEA1C4C0CFB0BF7B0EBC74072EB5732B0
:100E100003FB0CF734BFA2EBC742B2EBC74261EB56
:100E200057310CFB0EF7B0EBC70072EB57720CFB9F
:100E300008F734BFA2EBC702B2EBC70261EB5771F0
:100E4000039F4FEA816141EA921104EBCC044FEA1F
:100E5000D1374FEA826206FB07FC42EA90124FEA62
:100E600080604FEA1C4C0CFB0BF7D21B03FB0CF70A
:100E700061EB07010CFB0EF7B0EB074072EB17427A
:100E80000CFB08F734BFA2EB0742B2EB074261EB61
:100E900017414FEA8C554FEA910704EB9C2406FB5F
:100EA00007FC4FEA1C4C0CFB0BF7B0EBC74072EB96
:100EB000573203FB0CF734BFA2EBC742B2EBC74279
:100EC00061EB57310CFB0EF7B0EBC70072EB5772BA
:100ED0000CFB08F734BFA2EBC702B2EBC70261EB11
:100EE000577115EB4C254FEA816141EA92114FEAA7
:100EF00082624FEAD13742EA901206FB07FC44F1C6
:100F000000044FEA80604FEA1C4C0CFB0BF7D21B2D
:100F100003FB0CF761EB07010CFB0EF7B0EB07408E
:100F200072EB17420CFB08F734BFA2EB0742B2EB9F
:100F3000074261EB174115EB1C154FEA813141EA7D
:100F400092414FEA823242EA90424FEA80304FEAC1
:100F50000C7644F1000448EA03434EEA0B484FF094
:100F6000000EB2EB080C71EB030724BF6246394652
:100F70004EEB0E0E4FF0000B0018524149414BEB67
:100F80000B0BB2EB080C71EB03077BF1000B24BFDA
:100F9000624639464EEB0E0E4FF0000B00185241E0
:100FA00049414BEB0B0BB2EB080C71EB03077BF1E8
:100FB000000B24BF624639464EEB0E0E51EA020783
:100FC00018BF46F0010616EB0E7655F1000254F1FB
:100FD000000103D5BDE88901BDE80088BDE88901AD
:100FE000BDE80048B619524141EB0101A3F10103EC
:100FF000704780807F7E7D7C7B7A79787776767586
:101000007473727171706F6E6E6D6C6C6B6A6A69FD
:101010006868676666656464636362616160605F97
:101020005F5E5E5D5D5C5C5B5B5A5A595958585710
:101030005756565555555454535352525251515078
:1010400050504F4F4F4E4E4D4D4D4C4C4C4B4B4BCB
:101050004A4A4A4949494848484747474746464611
:10106000454545444444444343434342424242414C
:101070004141002B9C4630D477002BD01CB54FEA61
:10108000370703B44FF010004FF01001BAF1000F12
:1010900006D0BCF1000FDCBF40F0080040F00801B2
:1010A0004FF000000FBCBDE810400BF1010BBBF18D
:1010B000010F08BF5FEA170722BF12F1010211F109
:1010C00001014FF0004143F1000300F0004043EA0A
:1010D00000007047F9D35708D0E746EA064613F1F7
:1010E000400F4FEA16461FDD13F1200FDFBF1643F6
:1010F0000A46002120335B42BED0C3F1200746EAF6
:10110000064602FA07F74FEA164646EA0706C3F113
:10111000200722FA03F201FA07F721FA03F14FF050
:10112000000342EA0702A7E746EA020646EA064645
:101130004FEA164646EA0106BCBF46EA0646360CAA
:101140004FF000034FF000024FF0000194E72DE94B
:10115000804C9A46934670B491E8380007C831EA4B
:10116000400C48BF34EA430C03D5FFF7E6FDFFF718
:1011700080FFF0BCBDE8008C2DE9804C9A46934678
:1011800070B491E8380007C810F0804F08BF13F022
:10119000804F03D100F005F8FFF76BFFF0BCBDE80E
:1011A000008C20F07F4780EA030023F07F4C07EBA0
:1011B0000C03A3F57C5300F00040A3F1FE0392F072
:1011C000000F00F0B38095F0000F00F077802DE95C
:1011D00001494FEA11404FEA144621EA004800FB5A
:1011E00006FC24EA064708FB06F607FB08F800FBA6
:1011F00007F718EB06484CEB164C4FEA124B18EB6E
:1012000007484FEA15464CEB174022EA0B4E0BFB02
:1012100006FC25EA06470EFB06F607FB0EFE0BFB57
:1012200007F71EEB064E4CEB164C4FF000061EEB7C
:10123000074E4CEB174B18EB0B0840F1000018EB76
:101240000E0B58EB000840F100008F1A4FF0000120
:101250003CBFC943661B14BFB5EB040C00213CBF67
:10126000C943F61B4FEA17444EEA8E0E27EA04459F
:101270004FEA1C4704FB07622CEA074C05FB07F703
:101280000CFB05F604FB0CFC16EB074642EB174281
:1012900016EB0C4642EB1C421BEB060658EB020217
:1012A000414146EA9E0601D5BDE80189B619524181
:1012B00041EB0101A3F10103BDE801894FEA1445A7
:1012C0004FEA114724EA054621EA074C05FB07F4DB
:1012D00006FB07F70CFB06F105FB0CFC11EB0741C5
:1012E00044EB17444FEA124711EB0C4144EB1C440A
:1012F00022EA074C05FB07F206FB07F70CFB06F694
:1013000005FB0CFC16EB074642EB174216EB0C46AE
:1013100042EB1C456A1854F1000148BF7047B619EA
:10132000524141EB0101A3F10103704795F0000F19
:1013300037D04FEA11424FEA144721EA024624EA25
:10134000074C02FB07F106FB07F70CFB06F402FB58
:101350000CFC14EB074441EB17414FEA154714EB23
:101360000C4441EB1C4125EA074C02FB07F506FB48
:1013700007F70CFB06F602FB0CFC16EB074645EBE9
:10138000174516EB0C4645EB1C42121951F10001B2
:1013900048BF7047B619524141EB0101A3F1010367
:1013A00070474FEA14454FEA114724EA054621EAFF
:1013B000074C05FB07F106FB07F70CFB06F24FF0A5
:1013C000000605FB0CFC12EB074241EB174112EB48
:1013D0000C4251EB1C4148BF7047921841EB010190
:1013E000A3F10103704700002DE9F041264C4FF4B2
:1013F000A0752946204600F070F8012842D1204609
:1014000000F061F8224B02462048996940F82120FB
:10141000491C9961642901D10021996100231A4670
:1014200050F82210521C0B44642AF9DB642093FB11
:10143000F0F040F64E41884202DD00F091F91BE0E9
:1014400040F65431134A884202DD0821104606E076
:10145000114F4FF40056002804DD3146384600F0A5
:10146000AEFA09E040F698216538884204D2082196
:10147000104600F0A2FAF0E729462046BDE8F04108
:1014800000F00CB8BDE8F08100240140800200208B
:101490000000002000080140001001406FEA112107
:1014A000016070470029816802D041F0010101E02C
:1014B00021F00101816070470146002089684907D9
:1014C00000D501207047C06C80B2704702460020F2
:1014D00012680A4200D00120704710B50246002071
:1014E00054680B0AC9B20C401168194202D0002C92
:1014F00000D0012010BD014600208968090700D5F1
:101500000120704710B542680E4B0C791A400B68E9
:1015100042EA04221343436082680B4B1A40D1E92C
:10152000024323434C7942EA440213438360C26A74
:10153000097C22F47002491EC9B242EA0151C1621B
:1015400010BD0000FFFEF0FFFDF7F1FF70B50726AC
:1015500009290AD9C568A1F10A0404EB4404A6408C
:10156000B543A3401D43C56007E0056901EB410495
:10157000A640B543A3401D4305611F23072A09D296
:10158000446B521E02EB820293409C4391400C43F9
:10159000446370BD0D2A09D2046BD21F02EB820294
:1015A00093409C4391400C43046370BDC46A0D3A60
:1015B00002EB820293409C4391400C43C46270BD95
:1015C000816841F00801816070470029816802D07C
:1015D00041F4A00101E021F4A0018160704781681D
:1015E00041F0040181607047002101600171417187
:1015F0008160C160012101747047002800DA404217
:10160000704700002DE9F047072001F089FE02F045
:1016100092FD002204460D46134602F0B7FD01D2AA
:10162000002425462E4F786800EBC00101EB4019DD
:101630002046294602F022FD2A4AF96942F8210093
:10164000491CF961502901D10020F86100252E467E
:101650002C46904658F8240002F06DFD2A46334689
:1016600002F0F8FA641C05460E46502CF2DB00220C
:101670001D4B02F0ABFBDFF8748004460D464FF4BF
:1016800080463146404600F091F908B3786A02F08E
:1016900052FD22462B4602F0E9FE04460D4600228A
:1016A000134B02F093FB02F0E9FC3862786860B1FA
:1016B0003146404600F07AF938B1484602F03BFD29
:1016C00022462B4602F09CFE08D20120BDE8F0879E
:1016D0002046294602F0D2FC7862F6E70020F5E7C2
:1016E00000000020100400200000544000100140C1
:1016F000000026400029016802D041F0010102E00B
:101700004FF6FE7211400160704730B5026847F62F
:10171000F0739A430C6A8B682343D1E904452C4348
:1017200023438C692343CC6923434C6A23438C6A4B
:10173000234313430360CA6842600A6882604968B1
:10174000C16030BD0021016041608160C160016104
:1017500041618161C1610162416281627047000043
:1017600010B54FF40041054800F029F90449012063
:101770000870BDE81040002000F03EBE001001409F
:101780000000002070B505464FF43026304600F0CA
:1017900093F8042811D1094C206940F0020020611F
:1017A0006561206940F040002061304600F084F817
:1017B000216941F6FD721140216170BD0020024097
:1017C00008490420CA68D20701D001207047CA68BE
:1017D000520701D502207047C968C906FBD503200E
:1017E000704700000020024010B5102000F00EF8F5
:1017F000BDE81040022000F049B80000024801692D
:1018000041F08001016170470020024004490A68EC
:1018100022F010020A600A6802430A607047000062
:10182000002002402DE9F841064600204FF4005701
:1018300000900D46384600F03FF8042816D10C4CB5
:10184000206940F0010020613580B846384600F03C
:1018500033F8BF1E042806D1B61C280C0096308031
:10186000404600F029F8216939402161BDE8F8813E
:1018700000200240044A002108CA491C08C089B25D
:101880000329F9D37047000000FC0008034A1168DF
:1018900001F0380101431160704700000020024050
:1018A000034802494160034941607047230167458D
:1018B00000200240AB89EFCD00B50346FFF780FF63
:1018C00002E0FFF77DFF5B1E012803D0002B00D153
:1018D000052000BD002BF4D1FAE7000070B50446E6
:1018E000FFF7DEFF094E3046FFF74CFF002530467C
:1018F0002168FFF797FF6D1CADB2241D361D032D27
:10190000F5D3BDE87040FFF779BF000000FC000888
:10191000F0B5CC78002204F00F03E40601D58C78F2
:1019200023430C784FF00F0C14F0FF0F4FF0010E13
:101930001BD005680E880EFA02F42640A64210D18C
:1019400096000CFA06F725EA070703FA06F5CE78A3
:101950003D43282E02D0482E02D002E0446100E030
:101960000461521C082AE5D305600A88FF2A1CD9A5
:101970004468002202F108060EFA06F50E882E4091
:10198000AE420ED196000CFA06F7BC4303FA06F7F6
:10199000CE783C43282E00D14561CE78482E00D128
:1019A0000561521C082AE5D34460F0BD02460020C0
:1019B00092680A4200D0012070474161704701617E
:1019C00070474FF6FF710180022181700421C170C0
:1019D000704700002DE9F0411E48006803F03AF816
:1019E0001D4EB16A02F020FF1C4902F01DFF02F0FB
:1019F00033FE04460D46FFF705FE20B90024184DBE
:101A00000A2001F0A7FC2046294602F037FB154FBB
:101A1000716947F82100491C7161032901D1002037
:101A2000706100252E462C4657F8240002F083FBF7
:101A30002A46334602F00EF9641C05460E46032C76
:101A4000F2DB0022084B02F0C1F9BDE8F04102F0E0
:101A500015BB0000680000200000002000A0954594
:101A600000407F4074020020000008400346002030
:101A70009A8A1B8B42EA034222F07F42914300D1B3
:101A8000012070470029018802D041F0010101E0E6
:101A900021F001010180704770B50446808886B04E
:101AA0000D4620F03F06684600F044F927490298A9
:101AB000B0FBF1F189B20E43A680228822F0010228
:101AC0002280234B2A689A421CD85200B0FBF2F0C5
:101AD00080B2042800D20420491C2184A0832088DD
:101AE00040F00100208020884FF6F5310840A98899
:101AF0006A89114301432180A889298908432081EB
:101B000006B070BDEB88A3F53F46FF3E0BD002EB5D
:101B1000C20303EB0212B0FBF2F080B240F480404B
:101B2000020506D007E002EB4202B0FBF2F080B201
:101B3000F6E740F001004FF4967251434FF47A7289
:101B4000B1FBF2F140F40040C6E7000040420F0054
:101B5000A08601002DE9FE43012140F61D0000F0A2
:101B6000DDF86846FFF72DFF10248DF8034041F2A1
:101B70000900ADF80000DFF8989003258DF80250B9
:101B800069464846FFF7C4FE48268DF80360E00129
:101B9000ADF800008DF8025069464846FFF7B8FEE0
:101BA0008DF8036040F2E230ADF80000DFF86480A9
:101BB00001268DF8026069464046FFF7A9FE8DF8C0
:101BC00003404FF46047ADF800708DF8026069463D
:101BD0001148FFF79DFE01A8FFF7F3FE8DF80740BF
:101BE0007811ADF804008DF8066001A94846FFF7AA
:101BF0008FFE02A8FFF7E5FE8DF80B40ADF80870E8
:101C00008DF80A5002A94046FFF782FEBDE8FE8328
:101C100000080140000C0140001001403EB5FFF7F4
:101C2000E3FD6846FFF726FEBDF800004FF6E851D9
:101C30000025144C884208D91348A0621520A060E2
:101C4000E060A570657065603EBD02F003FF0F495E
:101C500002F0EAFDA062BDF80200A060BDF8040039
:101C6000E0609DF80610012009B1A07000E0A570A9
:101C70009DF8071009B1607000E06570BDF80800BC
:101C800060603EBD0000002000004842000020418E
:101C90002DE9F041134D4FF4004631462846FFF739
:101CA0008EFE00244FF49677E0073146284615D083
:101CB000FFF783FE384601F04DFB641C0A2CF3DB72
:101CC00031462846FFF779FE074A00212846117061
:101CD000BDE8F0414FF40051FFF771BEFFF76FFE12
:101CE000E8E700000010014000000020044A00293D
:101CF000516901D0014300E0814351617047000008
:101D000000100240044A0029D16901D0014300E0DB
:101D10008143D1617047000000100240044A00294D
:101D2000916901D0014300E0814391617047000057
:101D30000010024030B5204A5168204B11F00C01D0
:101D400003D0042901D0082901D0036012E05168B2
:101D5000536801F470114FF0020413F4803F04EB58
:101D6000914102D053689B0301D5154B00E0134B02
:101D70005943016051680F2303EA1111114B5C5C58
:101D80000168E14041605468072505EA14241C5DA0
:101D900021FA04F48460546805EAD4241B5DD94018
:101DA000C1605268032303EA9232064B1B1F9A5C00
:101DB000B1FBF2F1016130BD0010024000127A0067
:101DC00000093D005800002030B5802813D220299A
:101DD00011D20B4B1B790BB172B10022012301F020
:101DE0000704A340074DC90800EBC110012A295C74
:101DF00004D09943295430BD0122EFE71943F9E794
:101E0000480000205005002028B1FF224FF4007147
:101E10000248FEF7C0BA0022F8E700005005002093
:101E2000014A1080518070474800002010B501F031
:101E30008BFD012001F08EFA5A4CAE23002278214E
:101E4000204601F017FE202300227821204601F0D1
:101E500011FE102300227821204601F00BFEB02352
:101E600000227821204601F005FEC82300227821B7
:101E7000204601F0FFFD00231A467821204601F09C
:101E8000F9FD102300227821204601F0F3FD4023C4
:101E900000227821204601F0EDFD812300227821E7
:101EA000204601F0E7FDFF2300227821204601F0C3
:101EB000E1FDA12300227821204601F0DBFDA623CD
:101EC00000227821204601F0D5FDA82300227821A8
:101ED000204601F0CFFD1F2300227821204601F08B
:101EE000C9FDA42300227821204601F0C3FDD3239D
:101EF00000227821204601F0BDFD00231A467821FA
:101F0000204601F0B7FDD52300227821204601F0BC
:101F1000B1FDF02300227821204601F0ABFDD9234A
:101F200000227821204601F0A5FD222300227821FD
:101F3000204601F09FFDDA2300227821204601F09F
:101F400099FD022300227821204601F093FDDB2336
:101F500000227821204601F08DFD202300227821E7
:101F6000204601F087FD8D2300227821204601F0D4
:101F700081FD142300227821204601F07BFDAF2350
:101F800000227821204601F075FD0020FFF73CFF7C
:101F900000F070F804480021018041800121417166
:101FA000084610BD00580040480000202DE9F047C9
:101FB000824625480E469146018832781144802990
:101FC00005D28046408871780844202802D300203A
:101FD000BDE8F087002529E0AAF1200101FB0050AF
:101FE0007268002432F810701CE007FA04F0000454
:101FF00009D5B8F80210B8F800002944204489B285
:1020000080B24A460BE0B9F1000F1AD00022B8F8AE
:102010000210B8F800002944204489B280B2FFF7CA
:10202000D3FE641C3078A042DFD86D1C7078A842C3
:10203000D2D8B8F80010327850461144A8F80010F1
:10204000C6E70122E3E700004800002070B515460E
:102050000E46044609E02A463146FFF7A7FF2178DD
:10206000884201D0C8B270BD641C20780028F2D12B
:10207000C0B270BDF8B50024114D124F802604F196
:10208000B000C3B200227821284601F0F3FC0023FF
:102090001A467821284601F0EDFC10230022782111
:1020A000284601F0E7FC07EBC413402278212846BC
:1020B000009601F005FD641CE4B2082CDFD3F8BDE6
:1020C00000580040500500203EB5164CE07800282E
:1020D00026D0FFF789FB1449A06A02F0CFFC02F07A
:1020E00081FCADF800002089ADF80200A089ADF8B0
:1020F0000400A1780120002511B18DF8060001E04F
:102100008DF80650617811B18DF8070001E08DF867
:102110000750A088ADF808006846FFF7DFFBE570C0
:102120003EBD0000000000200000204110B5FFF778
:1021300051FC04461B480069201AFFF75EFA02288A
:102140002FDD40F2DC50844220DA204602F06AFCA7
:10215000154902F069FB01464FF07E5002F064FB26
:1021600002F07AFA114A124B02F04CF8114A124B63
:1021700001F070FD114A124B02F044F801F038FDF5
:1021800001464FF07C5001F007F900E00D4801F0E6
:1021900045FB204600F018F8BDE81040282001F06B
:1021A000D9B810BD000000200080BB44BA490C0221
:1021B0002B87B63FFCA9F1D24D62903FC3F5285C56
:1021C0008FC2ED3FCDCCCC3D2DE9F041174D0446FB
:1021D00000212846FFF78EFA144E00213C3E30467F
:1021E000FFF788FA114F0021503F3846FFF782FA77
:1021F000DFF83C800021404600F0DFF90D48046123
:102200000B48283004800121404600F0D6F9012116
:102210002846FFF76FFA01213046FFF76BFA384680
:10222000BDE8F0410121FFF765BA00006C000240F3
:10223000002C0140000000200CB50022264800922E
:102240000192016841F4803101604FF4A06301689C
:1022500001F4003101910099491C0091019911B9D3
:1022600000999942F3D10168890333D50121019185
:102270001A490A6842F010020A600A6822F0030252
:102280000A600A6842F002020A60416841604168DF
:102290004160416841F480614160416821F47C11F2
:1022A0004160416841F4E8114160016841F080718A
:1022B000016001688901FCD5416821F0030141609A
:1022C000416841F0020141604168C1F38101022986
:1022D000FAD10CBD01920CBD00100240002002405A
:1022E00070B53B4E4FF400513046FFF768FB642059
:1022F00001F030F80024FFF785F9641C502CFADB5C
:102300000024FFF767FB641C0546032CF9DB31480A
:1023100001F084FA01F0F2FB01F052F801F0EAF961
:1023200001F01CFA01F04AFA4FF480413046FFF701
:1023300046FB40F6B83448E0012000F0D5FA4FF4EF
:1023400000413046FFF739FBB4F52F6F21DA204604
:1023500002F068FB204902F067FA01464FF07E5018
:1023600002F062FA02F078F91C4A1D4B01F04AFFB4
:102370001C4A1D4B01F06EFC1C4A1D4B01F042FF34
:1023800001F036FC01464FF07C5001F005F801F0F9
:1023900045FAFFF737F928B11648806894FBF0F04A
:1023A000241A02E0C82000F0D5FF2046FFF70CFFFA
:1023B00000F07EFA40B1002000F01EF8BDE8704049
:1023C0004FF4967000F0C6BF641EAC42B4DC70BD22
:1023D00000100140CDCCCC3D0080BB44BA490C027A
:1023E0002B87B63FFCA9F1D24D62903FC3F5285C24
:1023F0008FC2ED3F000000202DE9F047DFF810818B
:10240000444DDFF814914FF4004788B3E868002882
:1024100040DD40F2DC562C6936E0022000F064FA20
:1024200039464046FFF7C9FAB4F5AF6F21DA2046C6
:1024300002F0F8FA394902F0F7F901464FF07E5000
:1024400002F0F2F902F008F9354A364B01F0DAFEF3
:10245000354A364B01F0FEFB354A364B01F0D2FED1
:1024600001F0C6FB01464FF07C5000F095FF01E003
:1024700010E0314801F0D2F9E86894FBF0F0044430
:102480002046FFF7A1FE641CB442C6DB0821484683
:10249000FFF793FA002028620A2000F05BFF00217A
:1024A0002648FFF727F9254800213C38FFF722F995
:1024B000224800215038FFF71DF90021204800F084
:1024C0007CF8FFF747FB4FF4804421464046FFF776
:1024D00074FA1C4D61102846FFF771FA2146284610
:1024E000FFF76DFA39462846FFF769FA012000F038
:1024F00031FFA1114C464846FFF75FFA69152046A7
:10250000FFF75BFA29152046BDE8F047FFF755BAFB
:102510000010014000000020000801400080BB4482
:10252000BA490C022B87B63FFCA9F1D24D62903F0D
:10253000C3F5285C8FC2ED3FCDCC4C3D6C00024012
:10254000002C0140000C01400F4810B5016841F01B
:102550000101016041680D4A1140416001680C4A67
:1025600011400160016821F480210160416821F47B
:10257000FE0141604FF41F018160FFF75DFE0549D8
:102580004FF00060086010BD001002400000FFF82E
:10259000FFFFF6FE08ED00E010B50A884B88CC88F6
:1025A0001A438B8823431A430B891A434B89898921
:1025B0001A430A43A0F8442010BD0029018802D024
:1025C00041F0010101E021F0010101807047002983
:1025D00030F8441F02D041F4004101E0C1F30E0184
:1025E00001807047002A828901D00A4300E08A43B3
:1025F0008281704730B5028C22F001020284028C85
:102600008388048B22F0020224F073050C882C438B
:102610000D8915434A882A43114DA8420BD0114D0C
:10262000A84208D0104DA84205D0104DA84202D0B3
:102630000F4DA8420DD122F008054A8923F44073BA
:102640002A4322F004058A882A438D891D43CB89B9
:102650002B4383800483C9888186028430BD0000B7
:10266000002C014000340140004001400044014082
:1026700000480140028B22F008020A43028370479F
:1026800070B5028C22F010020284028C8388048BC5
:102690000D8824F4E6464FF6FF7404EA0525354319
:1026A0000E8922F0200204EA061616434A8804EA3C
:1026B00002123243104EB04202D0104EB04215D139
:1026C00022F080064A8923F4406304EA021232436E
:1026D00022F040068A8804EA021232438E8904EA14
:1026E00086061E43CB8904EA830333438380058334
:1026F000C9880187028470BD002C0140003401406C
:10270000028B4FF6FF7322F4006203EA01211143AA
:102710000183704770B5028C22F480720284028CAF
:102720008388848B0D8824F0730425430E894FF62B
:10273000FF7422F4007204EA062616434A8804EA6B
:1027400002223243104EB04202D0104EB04215D198
:1027500022F400664A8923F4405304EA02223243F9
:1027600022F480668A8804EA022232438E8904EACF
:1027700006161E43CB8904EA031333438380858303
:10278000C9888187028470BD002C0140003401405B
:10279000828B22F008020A438283704730B5028898
:1027A0001B4C1C4DA0420DD0A8420BD0B0F1804F65
:1027B00008D0194B984205D0184B984202D0184BBC
:1027C000984203D122F070034A881A43154B98426D
:1027D00006D0154B984203D022F44073CA881A439E
:1027E00002808A8882850A880285A0420AD0A8428F
:1027F00008D00E4A904205D00D4A904202D00D4AB0
:10280000904201D1097A01860121818230BD000008
:10281000002C01400034014000040040000800404A
:10282000000C004000100040001400400040014037
:1028300000440140004801404FF6FF7181800021B3
:102840000180C180418001727047000010B50620F0
:1028500000F066FD40F68862064B90424FF48051CE
:10286000184603DABDE81040FFF7A9B8BDE81040EC
:10287000FFF7A3B80008014010B540210948FFF751
:1028800095F840B94FF480410748FFF78FF810B929
:102890000648007808B1002010BD142000F05AFD51
:1028A000012010BD000C014000100140000000207C
:1028B00010B540210948FFF779F868B94FF4804115
:1028C0000748FFF773F810B90648007820B11420C4
:1028D00000F040FD012010BD002010BD000C0140A3
:1028E00000100140000000202DE9FC4104460020BA
:1028F000FFF78AFA8F4DE86A072873D2DFE800F005
:102900000490A7BDD3E2FB0000210320FFF788FA63
:10291000286A02F087F8884901F086FF01F09CFEE2
:1029200002460B4685A16846FDF75EFC01228549FB
:102930006846FFF78BFB00213F20FFF771FA286AFA
:1029400002F070F8804902F099F801F085FE024625
:102950000B467EA16846FDF747FC0122794968468F
:10296000FFF774FB15210A20FFF75AFADFF8E4811C
:102970004FF4804631464046FFF718F878B174B1FD
:10298000286902F04FF807467348006802F062F8C1
:10299000394601F049FF714901F046FF00E0A86A9D
:1029A00001F05AFE02460B466DA16846FDF71CFC7D
:1029B00001226D496846FFF749FB15213C20FFF7CE
:1029C0002FFA31464046FEF7F1FF002868781FD005
:1029D00048B1012C16D06449022C4FF0010215D0E9
:1029E00062A0A0E0A1E0012C06D05F49022C4FF0CC
:1029F000010205D060A096E001225B4961A092E04F
:102A000063A090E00122584963A08CE065A08AE0B1
:102A100055494FF0010208B164A084E066A082E04D
:102A200000210A20FFF7FCF901224F4965A0FFF7BA
:102A30000DFB0D210A20FFF7F3F9A86A01F00CFE47
:102A400002460B4646A16846FDF7CEFB4EE000214C
:102A50000A20FFF7E5F9012243495DA0FFF7F6FAE6
:102A60000D210A20FFF7DCF9687836494FF00102A2
:102A700008B15AA057E05BA055E000210A20FFF7FB
:102A8000CFF90122384959A0FFF7E0FA0D210A20B9
:102A9000FFF7C6F9A8782B494FF0010208B156A0FC
:102AA00041E056A03FE000210A20FFF7B9F90122DA
:102AB0002D4953A0FFF7CAFA0D210A20FFF7B0F9FC
:102AC000A8680DE000210A20FFF7AAF90122264993
:102AD0004FA0FFF7BBFA0D210A20FFF7A1F9E86824
:102AE0004EA1C0F165026846FDF77EFB0122154943
:102AF000684618E0FFE700210A20FFF791F901225C
:102B0000194948A0FFF7A2FA0D210A20FFF788F91A
:102B100048A168466A68FDF767FB68680028E5D148
:102B20000122084944A0FFF791FAFFF7A3FABDE894
:102B3000FC8100000000002000002041252E3166AD
:102B400041000000380000200000B041252E306612
:102B500057000000001001406800002000A09545CB
:102B6000252E3166487A000030000020205265761C
:102B7000657273650000000020466F7277617264B1
:102B8000000000003E3E205374617274000000009B
:102B90003E3E2053746F70003C3C2053746172744D
:102BA000000000003C3C2053746F70003C3C3C3CF7
:102BB0003C3C3C3C000000003E3E3E3E3E3E3E3E35
:102BC00000000000537461727420487A3A000000DB
:102BD0005374617274207370696E3A005265766541
:102BE00072636500466F7277617264004175746F3D
:102BF00073746172743A0000596573004E6F00007F
:102C000053706565642073746172743A000000004B
:102C100053706565642073746F703A0025642525D0
:102C2000000000004D6F746F7220616D70657261FD
:102C300067653A00256441004E6F74207573650026
:102C4000490050EAC12018BF04204A0D18BF40F0C7
:102C5000010040F2FF72B2EB515F08BF40F002008A
:102C6000012808BF052070472DE9F74F144694B09E
:102C70000021C4E902111599079121F00045C949C5
:102C80008D4206DC1599C4E9000117B00020BDE8AB
:102C9000F08FC549DFF814A3A9423CDD0799C44E63
:102CA0000029C44FC44A1599534619DD01F0EAFBC7
:102CB000554506D0C14AC24B01F0E4FBC4E900010E
:102CC0000AE04FF0D352BE4B01F0DCFB32463B46EC
:102CD00001F0D8FBC4E9000117B00120BDE8F08F76
:102CE00000F0B8FF554506D0B44AB54B00F0B2FF2E
:102CF000C4E900010AE04FF0D352B14B00F0AAFF43
:102D000032463B4600F0A6FFC4E9000117B04FF081
:102D1000FF30BDE8F08FAB49A942159978DB21F06F
:102D2000004183468846A84AA84B01F06BFA00226E
:102D3000A74B00F08FFF01F0A1F9099001F0FBF91A
:102D400006460F469C4A534601F05CFA43465A46F3
:102D500001F08CFB80468A46984A994B30463946AA
:102D600001F050FA2A0D01250B924246534601F01C
:102D70007DFB032DC4E9000139D00B98C1F30A5142
:102D8000401A05EB45111139814230DA9148C346AA
:102D9000784400EB0510CDF80CA00C90D0E900238E
:102DA0003046394601F02EFA02460B460491069051
:102DB0005846039901F066FB80468A4602460B4658
:102DC0005846039901F05EFB049B069A01F05AFBFA
:102DD00083460C9803913946D0E90223304601F02E
:102DE00011FA5A46039B01F04DFB6D1CBDE7079895
:102DF0000028A2BF099817B0BDE8F08F616881F084
:102E000000416160099817B04042BDE8F08FFFE7CC
:102E100084461598C1F31301C0F30A50A0F2F530AF
:102E20004FEA601800F01F06C6F120001390002042
:102E30000690079041F4801E05206D4676B1664AE3
:102E400008EB00017A4452F8213002EB8101B340D3
:102E50004A68139922FA01F1194305E05F4908EB2A
:102E60000002794451F82210A1FB0E27A1FB0C139C
:102E70001A449A4234BF0123002303EB070A05EBEF
:102E80008003D3E901B70F448F4234BF01210021F1
:102E900093448B4411B1934502D903E0934501D289
:102EA000012100E00021C3E901B7514445F8201099
:102EB000011EA0F10100C1DC0298059F00F1005045
:102EC000800F12900298DDE90356800001F033F97B
:102ED000834628460D9101F045F96FF01D0201F07F
:102EE00042FFCDE90E01304601F03CF96FF03D02A2
:102EF00001F039FF80468A46384601F033F96FF019
:102F00005D0201F030FF074642465346119100F042
:102F1000A1FEDDE90E2300F09DFE5A460D9B00F058
:102F200099FE00250E465A4628460D9B01F0AAFA46
:102F3000DDE90E2301F0A6FA4246534601F0A2FA5B
:102F40003A46119B01F092FADFF898A0244A5346C2
:102F500001F058F907468846234A244B3146284653
:102F600001F050F93A46434600F074FE07468846A1
:102F70004FF0A84253463146284601F043F93A46FD
:102F8000434600F067FE159A12F0004F04D0129AE3
:102F900081F0004152421292C4E90001129817B028
:102FA000BDE8F08FFB21E93F7CD90240FB21F93FCE
:102FB0007370032E8A19A33B000040543163621AD8
:102FC00061B4D03DFB21394183C8C96D305FE43F16
:102FD0000000E03FF4480000704800005248000044
:102FE000182D4454FB21F93D3326A611460B113C04
:102FF0002DE9FF4D21F0004807460C46B8F1795FF6
:1030000008DA01F03BF8002801BF0020324904B083
:10301000BDE8F08D3A4623461046194601F0F2F815
:10302000054602462D480E460B460621784400F020
:103030005DF82A46334601F0E5F8DDE902238246D1
:103040008B463846214601F0DDF804460F465246CD
:103050005B462846314601F0D5F822463B4601F052
:1030600011FA07468A464FF0FF322846314601F0F2
:103070007AFE1B4A90450ADA3A46534601F002FAB4
:1030800004B00022BDE8F04D134B01F0EFB9154A32
:103090004245A8BFA8F500154FF00004B8BF124D77
:1030A00022462B4601F0EEF90646884622462B467C
:1030B0000020094901F0E6F904460D463A46534618
:1030C0003046414601F0DEF904B022462B46BDE809
:1030D000F04D01F0CBB900000000F03F28460000A1
:1030E0003333D33F0000E93F0000D23F2DE9F041E8
:1030F0004F1E00EBC7010446D1E9000115461E46EC
:1031000037F006020DD02A46334601F07BF87F1EC9
:1031100004EBC703D3E9002300F09CFD37F006025F
:10312000F1D1022F25D0042F13D0062F18BFBDE8F0
:10313000F0812A46334601F065F8D4E90A2300F00D
:1031400089FD2A46334601F05DF8D4E9082300F0F2
:1031500081FD2A46334601F055F8D4E9062300F0F4
:1031600079FD2A46334601F04DF8D4E9042300F0F6
:1031700071FD2A46334601F045F8D4E9022300F0F8
:1031800069FD2A46334601F03DF8D4E90023BDE845
:10319000F04100F05FBD00002DE9FF4D054621F034
:1031A000004084B00C46B0F1795F0BDA2846FFF797
:1031B00047FD042808BF00F06FF8284608B02146F4
:1031C000BDE8F08D2A460B46104601F01BF8064676
:1031D0000F462A46234601F015F8804626488A46BF
:1031E00032463B4605217844FFF780FF834610981E
:1031F000029160B3214A224B4046514601F002F849
:10320000CDE900015A4640465146029B00F0FAFFC4
:1032100082468846DDE906014FF0FF3201F0A3FD4A
:103220005246434601F02EF932463B4600F0EAFF93
:10323000DDE9062301F026F9DDE9002301F022F99A
:1032400008B02A462346BDE8F04D01F00FB90B4601
:103250005A463046394600F0D5FF084A084B00F080
:10326000F9FC4246534600F0CDFF08B02A462346FB
:10327000BDE8F04D00F0EEBC6645000049555555DF
:103280005555C5BF012201F06EBD00221346104600
:10329000114600F09BBD0000024A0020110701F01A
:1032A00062BD000001FDFFFF30380A2801D2012075
:1032B000704700207047000010B5012186B08802D9
:1032C000FEF72CFD6846FEF78FF900214FF46020D1
:1032D000CDE902018DF804100120104C00918DF809
:1032E00005108DF8100069462046FEF70BF9012104
:1032F0002046FEF7D7F82046FEF762F92046FEF793
:10330000FAF80028FAD12046FEF769F92046FEF7C0
:10331000D3F80028FAD106B010BD00000028014003
:1033200010B50B4C0146032301222046FEF70EF98F
:1033300001212046FEF749F902212046FEF7C6F892
:103340000028F9D02046BDE81040FEF7BCB80000C8
:10335000002801400D494FF47A720968B1FBF2F17F
:1033600041430B48026842F0807202600948002223
:103370004260026842F00102026042688A42FCD365
:10338000016821F001010160704700006800002021
:10339000FCED00E0001000E070B50C46054601F0C1
:1033A00018FA00F07040B0F1004F07D024F0004050
:1033B000C0F1FF40C00F04BF204670BD284670BD5D
:1033C0007CB56846FEF7FDFA18258DF803504FF4DA
:1033D000E060ADF8000001248DF80240694609481C
:1033E000FEF796FA01A8FEF7ECFA4FF46040ADF84C
:1033F00004008DF807508DF8064001A90248FEF739
:1034000087FA7CBD00080140000C0140FEF70EFD6C
:103410006420FFF79FFF05211120FEF701FD012227
:10342000844985A0FEF712FEFEF724FEFEF7F6FBA8
:10343000FFF742FF0020FEF7DFFFFEF729FC804C7C
:10344000A07808B1FEF74CFF4FF4807900260127E1
:103450004FF07C5B7B4D4FF4007AFFF7F7F9FFF7F5
:103460000BFA20B1C820FFF775FFFEF739FFFFF711
:103470001FFA90B1207850B126704FF40041724885
:10348000FEF79BFA40F2DC50FFF764FF05E0962060
:10349000FFF760FF0120FEF7AFFFC8464946284608
:1034A000FEF784FA98B90A20FFF754FF41462846F0
:1034B000FEF77CFA58B9E06A062802DA401CE0629E
:1034C00002E0FEF701FEE662C820FFF743FF20217D
:1034D0002846FEF76BFA90BB0A20FFF73BFF20213E
:1034E0002846FEF763FA50BBE06A002800DDE7706B
:1034F00007282AD2DFE800F004040D12171D24006B
:103500005249A06A884220DA594601F0D1F8A062F7
:103510001BE0607880F00100607016E0A07880F019
:103520000100A07011E0A06801280EDD401EA0601F
:103530000BE0E068012808DD401EE06005E007E0E0
:1035400060680F2801DA401C60609620FFF702FFD8
:1035500080212846FEF72AFA90BB0A20FFF7FAFEE0
:1035600080212846FEF722FA50BBE06A002800DDE1
:10357000E77007282AD2DFE800F004040D12171DB7
:1035800024003349A06A884220DD594601F042FBFD
:10359000A0621BE0607880F00100607016E0A07807
:1035A00080F00100A07011E0A06864280EDA401CD1
:1035B000A0600BE0E068642808DA401CE06005E0E9
:1035C00007E06068002801DD401E60609620FFF77C
:1035D000C1FED04651462846FEF7E8F9F0B90A2068
:1035E000FFF7B8FE41462846FEF7E0F9B0B94FF4C0
:1035F00080411548FEF7DAF948B10120FEF7FCFEDC
:10360000607880F001006070FEF76AFE06E0607886
:1036100080F001006070C820FFF79CFE4FF48041ED
:103620000948FEF7C3F908B1FEF780FD0020FFF757
:103630005BF912E74000002048656C6C6F210000C8
:1036400000000020000C0140001001400000AA42D0
:103650000000C84100B5254B21F0004287B09A42D6
:1036600003DC0022134600922BE0214B9A4208D142
:1036700040B94FF00100FCF79EFEFFF706FE07B0D1
:1036800000BD03DBFFF7FEFD07B000BD02AAFFF798
:10369000EBFA10F003014FF001000DD0012914D016
:1036A00002291AD00DF1080C9CE80F00FFF7A0FCCE
:1036B00007B081F0004100BD0DF1080C00909CE8BE
:1036C0000F00FFF769FD07B000BD0DF1080C9CE885
:1036D0000F00FFF78DFC07B000BD0DF1080C009046
:1036E0009CE80F00FFF758FDE2E70000FB21E93FEF
:1036F0000000F07F10B501218CB00846FEF7F6FA05
:103700006846FEF71FF812480090124801901020FA
:1037100002905420039000200490802005904000E7
:103720000690800007902020089000020A4C099023
:1037300069462046FDF7E9FF01212046FDF7DAFF43
:103740000348012251023438FEF74CFF0CB010BD83
:10375000342C01407C0000201C00024030B58BB0AE
:103760006846FDF7EFFF12480090124801901020C4
:103770000290542003900020049080200590400087
:103780008400CDE906042020089000020A4D09902B
:1037900069462846FDF7B9FF01212846FDF7AAFF33
:1037A0000348012221463838FEF71CFF0BB030BD1C
:1037B000382C0140240100203000024010B58CB0AC
:1037C0006846FDF7BFFF1248009012480190102094
:1037D0000290542003900020049080200590400027
:1037E0000690800007902020089000020A4C099063
:1037F00069462046FDF789FF01212046FDF77AFF43
:1038000003480122D1023C38FEF7ECFE0CB010BD9B
:103810003C2C0140CC0100206C0002402DE9FE4F01
:103820003F494A783F49002A02D04FF0000A00E0A1
:103830008A463D4A029201D14FF0000189463B4938
:1038400001F01CF901F0B2F80024394EDFF8E480F1
:10385000394FDFF8E8B000F06EFCCDE900102046EB
:1038600001F0F8F8012101F0ACFA354900F0DCFF75
:103870000546514600F01CFF00F0EEFE324643467E
:1038800000F0C0FCFFF7E6FE00223B4600F0E2F944
:1038900002460B46DDE9001000F0B4FC00F01EFC0F
:1038A0002BF814002846029900F002FF00F0D4FE25
:1038B0003246434600F0A6FCFFF7CCFE00223B4612
:1038C00000F0C8F902460B46DDE9001000F09AFC52
:1038D00000F004FC1949A83121F814004946284693
:1038E00000F0E6FE00F0B8FE3246434600F08AFCE7
:1038F000FFF7B0FE00223B4600F0ACF902460B4653
:10390000DDE9001000F07EFC00F0E8FB0D4921F835
:103910001400641CA4B2542CA1D3BDE8FE8F000097
:1039200000000020ABAAAA3FABAA2A3F00006442D5
:103930006E861BF0F92109400000F03F7C0000205A
:103940000000A842CC01002010B5012186B08805F6
:10395000FEF7D8F901210820FEF7E0F9154800909C
:103960000020ADF804004BF6FF71ADF806101521EC
:10397000ADF80810ADF80A004FF480400E4CADF8D9
:103980000C0069462046FEF787F84FF44061ADF819
:1039900010101C218DF8131003218DF8121004A9AA
:1039A0000648FDF7B5FF01212046FEF76BF806B08B
:1039B00010BD0000801A060000580040000C0140B5
:1039C00070B50446008840F4807020801A4D44F69B
:1039D00020662E6003E02868401E286029D0A08A57
:1039E000C007F8D01BB1208840F4806020805AB90D
:1039F00021F0010020822E6003E02868401E28602C
:103A000017D0A08A8007F8D5012A0FD141F0010014
:103A100020822E60094E03E02868401E286008D0EE
:103A200031462046FEF722F80028F5D0208B0020F2
:103A300070BD012070BD0000500000200200030096
:103A40000B4A44F62061116003E01168491E1160C1
:103A50000BD0818A0906F8D5818A4907F5D50188F6
:103A600041F4007101800020704701207047000080
:103A70005000002070B51D461646002304461A4625
:103A8000FFF79EFF3146204600F00AF829462046FF
:103A900000F006F82046BDE87040FFF7D1BF0000F7
:103AA000064B44F620621A60828A120603D41A6812
:103AB0000AB1521EF7E70182704700005000002053
:103AC0002DE9F0411D461446002307461A46069E7E
:103AD000FFF776FF21463846FFF7E2FF002405E0B6
:103AE000295D3846FFF7DCFF641CE4B2B442F7D32B
:103AF0003846BDE8F041FFF7A3BF000030B58BB0FA
:103B000008A8FEF799FE2D4800242D4D008AADF837
:103B100020003920ADF82400ADF82240ADF8264051
:103B200008A92846FEF73AFE6021ADF800100120F2
:103B3000ADF802000420ADF804000820ADF80A003A
:103B40000220ADF8080069462846FEF753FD08211B
:103B50002846FEF78FFD69462846FEF791FD0821AD
:103B60002846FEF7CDFD69462846FEF7D3FD08211D
:103B70002846FEF70DFE01212846FEF71EFD012115
:103B80002846FEF724FDE814ADF810004010ADF80B
:103B900012008010ADF814008020ADF81600ADF8CA
:103BA00018408001ADF81A004000ADF81C0004A9CF
:103BB0002846FEF7F1FC0BB030BD000000000020ED
:103BC000002C014010B500290AD00878002807D041
:103BD00005487844FCF7F8FF002801D0002010BD0C
:103BE0000248784410BD00005A3C0000523C0000DE
:103BF00021F00042A2F16052B2F5801F01F00043B3
:103C000028BFD2F17F6C0BD95FEA001C43EAC202E5
:103C100042EB507018BF704728BF20F0010070477A
:103C2000B2F5801FBCBF184670474FEA410C1CF527
:103C3000001F02D2084600F0E8BF70B500F08CFB10
:103C400000000089FFF7F6BF4FF00040A0F58000AC
:103C50007047000010B591EA030F48BF83F000439E
:103C600000F11884841A71EB030C05D2121943EB8E
:103C70000C03001B61EB0C01DFF824E14FEA115447
:103C8000A4EB135C1EEA430F18BF9EEA445F73D097
:103C900023EA0E03DCF1200E21EA045143F48013E1
:103CA00032D322FA0CFE10EB0E0023FA0CFE41EB8D
:103CB0000E01CCF1200E03FA0EFE10EB0E0051F1B6
:103CC0000001B1F5801FCCF1200E32D201EB04517E
:103CD00012FA0EF2BDE8104058BF7047401C38BFC2
:103CE0005FEA420218BF7047002814BF20F00100AD
:103CF00041F100014FEA410313F5001F38BF70473F
:103D0000A1F1C04100F076BB012A43EB0302ACF104
:103D1000200CDCF11F0E32BF4FF0000E23FA0CF323
:103D200010EB030041EB0451B4EB115FD0D0A1EBD9
:103D3000045101F5801149085FEA300001EB04519C
:103D40000ED350F1000038BF12FA0EFE08D1BDE8C4
:103D50001040C9E7401C38BF5FEA4202CAD1C3E73E
:103D6000BDE810404FEA410313F5001F38BF70470C
:103D7000A1F1C04100F03EBB9EEA445F08D011EAC9
:103D80005E0FBDE8104004BF01F000410020704705
:103D9000BDE8104070B500F0DFFA00BF64FBBE3E26
:103DA0000000E0FF02494FF0000000F0AABF00BF92
:103DB0000000F87F491058BFC1F140415B1058BF67
:103DC000C3F140438B42EFF3008070472DE9C041BF
:103DD00030B4DFF8A0C23CEA111418BF3CEA131457
:103DE00000F0EC8081EA03051CEA111444EAD57462
:103DF00018BF1CEA131500F0C780A4EB05044FF0B0
:103E0000004545EAC12145EAC32341EA505143EA4E
:103E1000525304F17F74994204F500344FEAC020F4
:103E20004FEAC22208BF904200F09C804FEA13651F
:103E30000FF24016765D4FEA134506FB05F7C7F112
:103E4000807706FB07F74FEAD737A7FB0368764270
:103E5000C8F58038A7FB06CE38BFA8F1010807FBDC
:103E600008E64FF0000EA6FB028CE6FB03CEDCF169
:103E7000000CCEF1004E38BFAEF1010EA6FB0C587F
:103E80004FF000074FF00005E6FB0E87A1FB08C6C8
:103E9000A0FB07CE16EB0E0645F10005E1FB07651A
:103EA00015F1E04E7EBFA4F580345FEA46066D4111
:103EB00016F1800745F100054FEA17274FEA06661D
:103EC00047EA0567A6F1DE46B6F1805F4FEA1525A1
:103ED0001FD9384624F0010C05EBC471BCF1FE6F0C
:103EE00001EB0C1102D8F0BCBDE8008124425CBF9C
:103EF00001F5801E9EEAC47F02D4F0BCBDE80081BB
:103F0000244238D4F0BCA1F1C041BDE8004100F02A
:103F100071BA4FEAD22242EA43524FEAD323A7FBB7
:103F200002864FEAD02040EA415007FB03661EEAB2
:103F30000E0F4FEAD12105FB026658BFA6EB0056D3
:103F4000B6EB00564FEA520E4EEAC37E18EB0E0E49
:103F500056EB530EBDD518EB02085E417F1C55F1A0
:103F60000005B6E74FF480154FF000074FF000064C
:103F70004FF00008ADE7F0BC4FF0000001F1C04188
:103F800001F00041BDE8008111EA0C1F0CEA131595
:103F900000D00CE013EA0C1F00F025804FF0000069
:103FA000F0BC81EA030101F00041BDE80081F0BCF2
:103FB000BDE8004181EA030100F01CBAF0BCBDE895
:103FC000004170B500F0C8F9097EFC3E00F007B86A
:103FD00081EA03014FF0000001F00041704781EADF
:103FE000030100F007BAF0BCBDE800414FF000004B
:103FF00021497047FFFDFBF9F7F5F4F2F0EEEDEB28
:10400000E9E8E6E4E3E1E0DEDDDBDAD8D7D5D4D3D6
:10401000D1D0CFCDCCCBCAC8C7C6C5C4C2C1C0BF22
:10402000BEBDBCBBBAB9B8B7B6B5B4B3B2B1B0AF28
:10403000AEADACABAAA9A8A8A7A6A5A4A3A3A2A10C
:10404000A09F9F9E9D9C9C9B9A99999897979695C7
:1040500095949393929191908F8F8E8E8D8C8C8B63
:104060008B8A8989888887878685858484838382EB
:10407000828181800000FF070000F87F4FEA410342
:104080004FEA5353A3F58063D3F11E03C8BFD3F1A6
:10409000210C0CDD4FF0004242EAC12242EA5052AC
:1040A00032FA03FC8CEAE17CACEBE1707047102B38
:1040B000C4BF0020704703F5787CBCF1FF3F04D0FB
:1040C0006FF0004282EA2100704770B500F044F9B9
:1040D0004992248000207047F2E700004FEA115314
:1040E000A3F58063D3F11E03A8BFD3F1200C08DB36
:1040F0004FF0004242EAC12252EA505232FA03F033
:10410000704709420BD4102BC4BF0020704703F541
:10411000787CBCF1FF3F05D04FF0FF3070474FF087
:104120000000704770B500F017F900BF4992248075
:1041300000207047F0E710F0004248BF4042B0FA5C
:1041400080F310FA03F10AD0C3F11D0303F5806375
:104150004FEA415002EB035202EBD12170474FF07E
:1041600000007047B0FA80F310FA03F10AD0C3F1EF
:104170001D0303F580634FEA41504FEA035202EBFF
:10418000D12170474FF000007047000051EA030C46
:1041900017D41CF5801F58BFBCF5801F00F10680A6
:1041A000994218BF704708BF9042704707D711F572
:1041B000801F58BF13F5801F19D499427047894258
:1041C00070471CF5801F08D5BCF5801FF7D58B42C2
:1041D00018BF704708BF824270474FF4001C1CEBA9
:1041E000410F38BF1CEB430F01D28B42704770B5B3
:1041F00000F0B2F8922449004FF000514FF0805384
:10420000FFF7D8BDDFF848C170B51CEA111E1EBF0C
:104210001CEA13159EEA0C0F95EA0C0F00F06F8054
:1042200081EA030423EA4C134EEAD47E21EA4C11BE
:1042300041F4801143F48013AE44A1FB024CA0FB77
:104240000365AEF17F7E361955EB0C05A1FB034CDF
:104250004CF10003A0FB021C16EB0C06654153F168
:104260000003094218BF46F0010613F4007F0BD18A
:104270004FEA03314FEA0530340341EA155140EA71
:1042800016506FF003020AE04FEAC3214FEAC5203F
:10429000F40241EA555140EA56506FF0020202EB37
:1042A0002E4201EB025585EACE710AD05FEA440C3A
:1042B00018BF24F0004450F1000041F1000120EA51
:1042C000D47040F2FE7C624500D270BDA84214BF9B
:1042D0004FF080444FF04044002E08BF0024BEF150
:1042E000806FA8BFA1F1C041BDE8704080F282801C
:1042F0004FF0000001F1C04101F0004170479EEA1B
:104300000C0F0CEA131518BF95EA0C0F06D04FF0EE
:10431000000081EA030E0EF0004170BD00F01CF8B1
:104320008900013E00F007B800F009B84FEA430CDD
:104330005FEA5C5C08D081EA030100F05BB84FEAF9
:10434000410C5FEA5C5CF6D14FF000000149704718
:104350000000FF070000F87F0EF1020E2EF0030EA2
:104360005EF8046B364205D4012A43EB030515F5CC
:10437000001F12D8012841EB010C1CF5001F0CD8BE
:104380000ED14FEAD17C15F5001F0CEB4C0C0CF153
:10439000020C08BF4CEBD37C04E04FF0080C01E0AA
:1043A0004FEAD37C0CEB4C0526FA05F606F007061F
:1043B000B6F1040C06D20EEB860CBDE870404CF052
:1043C000010C6047DFE80CF0090B02024FF00041DE
:1043D0004FF00000A1F5002170BD194610460128DC
:1043E00051EB010418BFD4F5001484BF002001F084
:1043F000004170BD0808A0F500114FEA3101704777
:1044000053EA010C17D41CF5801F58BFBCF5801F60
:1044100000F106808B4218BF704708BF8242704788
:1044200007D713F5801F58BF11F5801F19D48B4291
:1044300070479B4270471CF5801F08D5BCF5801F54
:10444000F7D5994218BF704708BF904270474FF4A4
:10445000001C1CEB430F38BF1CEB410F01D29942EB
:1044600070470FB40CBC03BCFFF7C1BE91EA030F49
:1044700010B581F000413FF5F5AB83F0004300F04B
:1044800009B8000010B591EA030F48BF83F000435C
:104490003FF5E8AB841A71EB030C07D212198CF0CC
:1044A000004C43EB0C03001B61EB0C01DFF8A4E1B3
:1044B0004FEA1154A4EB135C1EEA430F18BF9EEAA7
:1044C000445F00F0B08023EA6E03524221EA0451B7
:1044D000C3EB6E0338BF5B1EDCF1200E25D322FA3E
:1044E0000CFE10EB0E0043FA0CFE41EB0E01CCF17A
:1044F000200E03FA0EFE10EB0E0051F10001CCF17C
:10450000200E29D412FA0EF201EB0451BDE810403E
:1045100058BF7047401C1CBFB2F1004F70470028C5
:104520000CBF491C20F00100704712EB020E43EB58
:10453000030218BF4FF0010E4EEA4202ACF1200C0C
:10454000DCF11E0E54D943FA0CFE10EB0E0051F1B3
:10455000FF31CCF11E0ED5D50EF1010E12FA0EFE72
:10456000404141EB010101EB445C5FEA5C5C10D926
:1045700010EBDE7001EB045138BFBEF1004FBDE817
:10458000104018BF704700280CBF491C20F00100E4
:10459000704730D24FEAD42C11F5001124F4006496
:1045A0001BD0B1FA81F20B3AA41AA41ED2F1200357
:1045B000914030FA03F31943904001EBCC71002C89
:1045C00001EB0451BDE81040A8BF704701F1C041A4
:1045D0004FF0000001F000417047B0FA80F310FA8C
:1045E00003F100D110BDE41A173C4805C90AE4E7FD
:1045F00001EB045110BD491001EB0451BDE810401E
:104600004FEA300002E04FF0000170474A0008BF57
:104610000042F8D0B2F5001F28BF704701F00041FA
:104620004FF0000070479EEA445F07D011EA5E0F2A
:10463000BDE8104004BF002100207047BDE81040D5
:1046400070B5FFF789FE00BF40DFF63E83F0004102
:10465000104670470000E0FF43004FEAD30C4FEADA
:104660003C0C43401FBF40070CF1605113F0FE4F5C
:1046700070471CF0006F03D100200CF00041704720
:104680000CF0004343EA507010B540EACC0000F053
:1046900076FA00BF000000924FEA0001FFF7AABEC1
:1046A0004FF000414FF00000A1F5002170470000DD
:1046B00090EA010F48BF81F0004100F1B282421A36
:1046C0003CBF801A89184FEAD0524FF07F4C1CEA49
:1046D000410FA2EBD15318BF9CEA026F00F03B8060
:1046E0004FF0004C4CEA00204CEA012121FA03FC77
:1046F00010EB0C0C1ED202F1FF325FEA1C2040EBE3
:10470000C25038BF70471CF07F0F4FEA400C18BFF3
:10471000BCF17F4F38BF7047C3F12003994008BFF9
:1047200020F00100BCF17F4F38BF7047A0F1C040BE
:1047300000F06BBA4FEA3C00000A40EBC25028BFC1
:104740001CF0FF0F4FEA400CE6D018BFBCF17F4FC2
:1047500038BF7047EAE79CEA026F05D010EA5C0FA9
:1047600008BF00F00040704710B500F008FA00BF25
:1047700064FBBE3E014800F0C4BA00BF0000C07F29
:1047800050EA010C00F113801CF5000F58BFBCF576
:10479000000F01D48842704707D710F5000F58BFAB
:1047A00011F5000F22D488427047894270471CF5EA
:1047B000000F04D5BCF5000FF7D5814270474FF0CC
:1047C000807C1CEB400F38BF1CEB410F0ED28142A6
:1047D000704710B5FFF7D4FFEFF3008020F01040D2
:1047E00038BF40F0004080F3008810BDBDE81040A5
:1047F00010B500F0C4F900BF0000000900F007B8D0
:104800004FF0404010F1004FEFF300807047401030
:1048100058BFC0F14040491058BFC1F140418142EA
:10482000EFF30080704700004FF47F0C1CEAD012B9
:104830001EBF1CEAD11392EA0C0F93EA0C0F00F092
:10484000858090EA010F48BF42F4807240F4000C6A
:1048500041F400002CF07F4120F07F4000B5814200
:10486000A2EB03020FF2081CACEB504EC0F10000AB
:104870009EF800E04FEA4E0E00FB0EFC38BF4900E8
:104880004FEA2C1C02F5FA020CFB0EF34FEACE1E87
:104890004FEA112C4FEAC1210EEB635E42EB22423C
:1048A0000EFB0CFC4FEA1C5300FB03114FEA112CCA
:1048B0004FEA01310EFB0CFC4FEADC4C00FB0C1103
:1048C000C14228BF09184CEB03335DF804EB10EB31
:1048D000410143EBC250B2F57C0F38BF704729D578
:1048E00012F0F00F1CBF00F1C04000F00040704714
:1048F000008182838485868788898B8C8D8E8F91B9
:104900009293959697999A9C9D9FA0A2A3A5A7A8DC
:10491000AAACAEB0B2B3B5B7B9BCBEC0C2C5C7C908
:10492000CCCED1D4D7D9DCDFE2E6E9ECF0F3F7FA6C
:10493000FE0000004FEA400C0CF1807CBCF17E4F81
:1049400028BF7047B0F1C04000F05FB990EA010F96
:104950000CEAD11348BF42F48072624538BF634508
:1049600007D213F47F0F16D080EA010000F0004058
:10497000704710B500F003F9097EFC3E00F005B861
:1049800080EA010000F00040704780EA010000F07A
:10499000004000F03AB912F47F0F04BF024870479C
:1049A00080EA010000F031B90000C07F41000B0E29
:1049B000D3F19E0208D950F400034FEA032323FAEF
:1049C00002F048BF4042704710B500F0D8F800BF71
:1049D00049922480002070476FF0004282EA200054
:1049E00070470000C10DD1F19E0206DB4FEA0023A3
:1049F00043F0004323FA02F07047004207D54FEA24
:104A00004001B1F1FE4F02D24FF00000704710B5E7
:104A100000F0B5F849922480002070476FEA20002A
:104A20007047000010F0004148BF4042B0FA80F3E8
:104A300010FA03F2C3F19D030BD051EAC35101EB0D
:104A40001220530638BF704700F1010008BF20F064
:104A500001007047B0FA80F310FA03F2C3F19D032E
:104A60000AD0D90501EB1220530638BF704700F178
:104A7000010008BF20F00100704700004FF47F0CD8
:104A80001CEAD0121EBF1CEAD11392EA0C0F93EA63
:104A90000C0F00F0478090EA010F48BF42F480728B
:104AA0004FF0004C4CEA00204CEA012102EB0302DB
:104AB000A0FB0113A2F50002002918BF43F0010377
:104AC0005B0028BF4FEA330342EB22425FEA132C1C
:104AD0004CEBC2502EBFBCEB436FB2F57C0F70475E
:104AE0004FEA036CBCF1004F08BF20F00100B2F5A3
:104AF0007C0F38BF70470BD582F0FF0212F5803F64
:104B0000C8BF704700F1C040D8BF00F000407047F8
:104B100000F5000C5FEA4C0C48BF7047B0F1C04094
:104B200000F073B890EA010F0CEAD11348BF42F4C9
:104B30008072624538BF634504D280EA010000F00C
:104B40000040704710B500F01AF800BF8900013E20
:104B500000F007B800F009B85FEA410C5FEA1C6C8E
:104B600008D080EA010000F050B85FEA400C5FEA2C
:104B70001C6CF6D14FF00040A0F5800070470EF19C
:104B8000020E2EF0030E5EF8044B244204D44FEACA
:104B90004102B2F17F4F11D84FEA4003B3F17F4F8A
:104BA0000CD80ED14FEAD07CB2F17F4F0CEB4C0CFD
:104BB0000CF1020C08BF4CEBD17C04E04FF0080C68
:104BC00001E04FEAD17C0CEB4C0324FA03F404F02F
:104BD0000704B4F1040C06D20EEB840CBDE81040BF
:104BE0004CF0010C6047DFE80CF0070802024FF0C0
:104BF0000040A0F5800010BD0846420018BFD2F169
:104C0000807288BF00F0004010BDFF2141EAD05003
:104C1000C005704790EA010F48BF81F000413FF5A1
:104C20004EAD421A04D882F00042A0EB02001144BB
:104C30004FEAD0524FF07F4C1CEA410FA2EBD15308
:104C400018BF9CEA026F4AD04FF0004C4CEA00209B
:104C50004CEA012121FA03FCB0EB0C0C0FD412F04A
:104C6000FE0F36D05FEA4C001DD5001240EBC2505B
:104C700038BF70471CF03F0F18BF70470BE0A2F120
:104C800001025FEA1C2040EBC25038BF70471CF0A5
:104C90007F0F18BF7047C3F12003994014BF401E17
:104CA00020F00100704780084FEA122308BF7047C8
:104CB000B0FA80FCA2EB0C02CCF1280C60FA0CF0EC
:104CC00093EA122F04BF00EBC25070474FEAC37043
:104CD0007047130A5FEADC1008BF7047F6E79CEAEA
:104CE000026F04D010EA5C0F08BF0020704710B5B7
:104CF000FFF745FF40DFF63E81F000407047FBF7CD
:104D000092BC0CF00F03092B08BF082000F07F8035
:104D10000A2B0BD0082B18BF704708BF1CF0400FA0
:104D20000AD04FF000004FF0000170471CF0400F18
:104D300018BF4FF0004070471CF0100F08D020F053
:104D4000704300F07F4242EAD3014FEA437070475C
:104D500000F0604021F07F4242EA000201F07F4013
:104D600040EA727070474FF0FF0C4CF4E06C1CEAA4
:104D700011531CBF9CEA030C9445C2BFDA4201EBFD
:104D800002517047002B0DD0BCF1000F0FD0002A4C
:104D900001F00041A4BF41F0E04141F07F614FF0DC
:104DA0000000704701F000414FF00000704750EAEA
:104DB00001334FF09B0C18BF4CF0806C7EF4F2AFC7
:104DC00070474FF0FF0212EAD0521CBF92F0FF036F
:104DD0008B42C2BFD14200EBC1507047002A0AD0BB
:104DE000002B0BD0002900F00040A4BF40F0FE4093
:104DF00040F40000704700F00040704743024FF05D
:104E00000B0C18BF4CF0806C7FF4B4AC70471CF4F2
:104E1000801F11D01CF4E02F03D06FEACC31490081
:104E200070474FF04050EFF3008222F0704242EAA8
:104E3000000282F3008870474FF0000070470000C6
:104E40000000000000000000000000000000000062
:104E500000000010001000100010001000100000F2
:104E600000100000000000280028002800000000BA
:104E70000000000000000000000000240024007C6E
:104E800000240048007C0048004800000000003872
:104E90000054005000380014005400540038001032
:104EA0000000002000540058003000280054001476
:104EB0000008000000000010002800280010003446
:104EC00000480048003400000000001000100010EE
:104ED00000000000000000000000000000000008CA
:104EE00000100020002000200020002000200010E2
:104EF0000008002000100008000800080008000852
:104F000000080010002000100038001000280000E9
:104F10000000000000000000000000000000001081
:104F20000010007C001000100000000000000000D5
:104F30000000000000000000000000000010001051
:104F40000010000000000000000000000038000019
:104F50000000000000000000000000000000000051
:104F60000000000000100000000000080008001011
:104F70000010001000100020002000000000003889
:104F80000044004400540044004400440038000041
:104F90000000001000300050001000100010001041
:104FA0000010000000000038004400440004000825
:104FB00000100020007C00000000003800440004C5
:104FC000001800040004004400380000000000083D
:104FD0000018002800280048007C00080008000095
:104FE0000000007C00400040007800040004004401
:104FF0000038000000000038004400400078004401
:1050000000440044003800000000007C0004000858
:1050100000100010002000200020000000000038D8
:1050200000440044003800440044004400380000BC
:1050300000000038004400440044003C00040044E8
:105040000038000000000000000000100000000018
:105050000000000000100000000000000000000040
:105060000010000000000000001000100010000000
:105070000000000C003000400030000C0000000078
:105080000000000000000000007C0000007C000028
:105090000000000000000000000000600018000494
:1050A0000018006000000000000000380044000408
:1050B0000008001000100000001000000000003880
:1050C0000044004C0054005C0040004000380000E8
:1050D000000000100028002800280028007C004460
:1050E00000440000000000780044004400780044C0
:1050F00000440044007800000000003800440040F4
:1051000000400040004000440038000000000070F3
:10511000004800440044004400440048007000007F
:105120000000007C00400040007C00400040004047
:10513000007C00000000007C00400040007800403F
:1051400000400040004000000000003800440040E3
:105150000040005C004400440038000000000044AF
:1051600000440044007C004400440044004400002B
:105170000000003800100010001000100010001097
:1051800000380000000000040004000400040004D3
:1051900000040044003800000000004400480050B3
:1051A000006000500048004800440000000000403B
:1051B000004000400040004000400040007C0000F3
:1051C00000000044006C006C0054004400440044A3
:1051D00000440000000000440064006400540054D7
:1051E000004C004C00440000000000380044004423
:1051F00000440044004400440038000000000078EF
:10520000004400440044007800400040004000009A
:1052100000000038004400440044004400440054AE
:105220000038000400000078004400440044007886
:1052300000480048004400000000003800440040DE
:105240000030000800040044003800000000007C2A
:1052500000100010001000100010001000100000DE
:105260000000004400440044004400440044004462
:1052700000380000000000440044004400280028DA
:1052800000280010001000000000004400440054FA
:1052900000540054006C0028002800000000004466
:1052A00000280028001000100028002800440000FA
:1052B00000000044004400280028001000100010E6
:1052C000001000000000007C000400080010001026
:1052D00000200040007C00000000001800100010BA
:1052E0000010001000100010001000100018002026
:1052F000002000100010001000100008000800003E
:10530000000000300010001000100010001000100D
:105310000010001000300010002800280044000099
:10532000000000000000000000000000000000007D
:1053300000000000000000000000000000FE00204F
:10534000001000000000000000000000000000004D
:1053500000000000000000380044003C0044004C05
:105360000034000000000040004000580064004489
:1053700000440064005800000000000000000038F5
:1053800000440040004000440038000000000004D9
:1053900000040034004C00440044004C0034000081
:1053A00000000000000000380044007C0040004481
:1053B000003800000000000C0010007C00100010FD
:1053C0000010001000100000000000000000003479
:1053D000004C00440044004C0034000400780040BD
:1053E00000400058006400440044004400440000B1
:1053F00000000010000000700010001000100010ED
:1054000000100000000000100000007000100010EC
:10541000001000100010001000E0004000400048A4
:105420000050006000500048004400000000007080
:1054300000100010001000100010001000100000FC
:105440000000000000000078005400540054005494
:1054500000540000000000000000005800640044F8
:105460000044004400440000000000000000003838
:1054700000440044004400440038000000000000E4
:1054800000000058006400440044006400580040DC
:105490000040000000000034004C00440044004C78
:1054A00000340004000400000000005800640040C4
:1054B00000400040004000000000000000000038F4
:1054C00000440030000800440038000000000020C4
:1054D000002000780020002000200020001800009C
:1054E0000000000000000044004400440044004C60
:1054F00000340000000000000000004400440028C8
:1055000000280028001000000000000000000054E7
:1055100000540054006C0028002800000000000027
:105520000000004400280010001000280044000083
:105530000000000000000044004400280028001083
:1055400000100010006000000000007C0008001047
:1055500000200040007C0000000000180010001037
:105560000010002000200010001000100018001093
:1055700000100010001000100010001000100010AB
:10558000001000300010001000100008000800108B
:105590000010001000300000000000000074004CFB
:1055A00000000000000000000000000000000000FB
:1055B00000000000000000000000000000000000EB
:1055C00000000000000000000000000000000000DB
:1055D000000C000C000C000C000C000C000C000C6B
:1055E000000C000C000C0000000C000C000000007F
:1055F00000000000001B001B001B001B001B000024
:10560000000000000000000000000000000000009A
:105610000000000000000000801980198019801926
:10562000C07FC07F80190033C07FC07F003300334C
:10563000003300330000000000000000001E003FA7
:10564000807580650074003C001E00078005806541
:1056500080658075003F001E00040004000000000B
:10566000007000D840D8C0D880D900730006000C64
:10567000801BC036C066C046C00680030000000024
:1056800000000000001E003F003300330033001E06
:10569000000CC03CC066806380618063C03E801C9B
:1056A0000000000000000000000C000C000C000CCA
:1056B000000C0000000000000000000000000000DE
:1056C0000000000000000000000080000001000356
:1056D000000600060004000C000C000C000C000C7E
:1056E000000C0004000600060003000180000020FA
:1056F00000100018000C000C000400060006000654
:105700000006000600060004000C000C0018001043
:1057100000200000000C002D003F001E00330000A0
:105720000000000000000000000000000000000079
:10573000000000000000000000000000000C000C51
:10574000000C000CC0FFC0FF000C000C000C000C93
:105750000000000000000000000000000000000049
:105760000000000000000000000000000000000039
:1057700000000000000C000C000400040008000001
:105780000000000000000000000000000000000019
:10579000001E001E000000000000000000000000CD
:1057A00000000000000000000000000000000000F9
:1057B000000000000000000000000000000C000CD1
:1057C00000000000000000000003000300030006CA
:1057D000000600060006000C000C000C000C00186F
:1057E000001800180000000000000000001E003F2C
:1057F0000033806180618061806D806D8061806137
:1058000080610033003F001E000000000000000027
:105810000006000E001E00360026000600060006E8
:105820000006000600060006000600060000000054
:1058300000000000001E003F8073806180618001D5
:1058400000030006000C001800300060807F807F9D
:105850000000000000000000001C003E0063006328
:105860000003000E000E0003800180018061807340
:10587000003F001E00000000000000000006000EB7
:10588000000E001E001E0016003600360066807FE7
:10589000807F0006000600060000000000000000F7
:1058A000007F007F006000600060006E007F80630A
:1058B0008001800180618073003F001E00000000B5
:1058C00000000000001E003F803380610060006E19
:1058D000007F80738061806180618033003F001EA3
:1058E0000000000000000000807F807F8001000336
:1058F000000300060006000C000C000C0008001855
:10590000001800180000000000000000001E003F0A
:105910008063806180610021001E003F80618061A2
:1059200080618061003F001E000000000000000058
:10593000001E003F00738061806180618073803F42
:10594000801D800180610073003F001E0000000088
:10595000000000000000000000000000000C000C2F
:10596000000000000000000000000000000C000C1F
:105970000000000000000000000000000000000027
:105980000000000C000C00000000000000000000FF
:10599000000C000C000400040008000000000000DF
:1059A000000080008003000E003800600038000E08
:1059B00080038000000000000000000000000000E4
:1059C0000000000000000000807F807F00000000D9
:1059D000807F807F000000000000000000000000C9
:1059E0000000000000000000000000400070001CEB
:1059F000000780010007001C00700040000000004C
:105A00000000000000000000001F803FC071C06067
:105A1000C000C00180030007000E000C000C000055
:105A2000000C000C0000000000000000001E003F01
:105A3000803180718063806F806D806D806F806742
:105A400000600032003E001C00000000000000006A
:105A5000000E000E001B001B001B001B803180315C
:105A6000803F803F8031C060C060C06000000000A7
:105A700000000000007C007E0063006300630063A0
:105A8000007E007E0063806180618063007F007E15
:105A90000000000000000000001E003F8031806117
:105AA0000060006000600060006000608061803124
:105AB000003F001E0000000000000000007C007F8E
:105AC000006380638061806180618061806180614A
:105AD00000630063007E007C000000000000000006
